:0400000500000A816C
:020000040000FA
:1000000000040020810A000015070000610A0000BA
:100010001F07000029070000330700000000000050
:10002000000000000000000000000000A50A000021
:100030003D070000000000004707000051070000D6
:100040005B070000650700006F07000079070000EC
:10005000830700008D07000097070000A10700003C
:10006000AB070000B5070000BF070000C90700008C
:10007000D3070000DD070000E7070000F1070000DC
:10008000FB070000050800000F0800001908000029
:10009000230800002D080000370800004108000078
:1000A0004B080000550800005F08000069080000C8
:1000B000730800007D080000870800009108000018
:1000C0009B080000A5080000AF080000B908000068
:1000D000C3080000CD080000D7080000E1080000B8
:1000E000EB080000F5080000FF0800000909000007
:1000F000130900001D090000270900003109000054
:100100003B0900001FB500F003F88DE80F001FBD8C
:1001100000F0ACBC40F6FC7108684FF01022401CA7
:1001200008D00868401C09D00868401C04D0086842
:1001300000F037BA9069F5E79069F9E7704770B554
:100140000B46010B184400F6FF70040B4FF0805073
:100150000022090303692403406943431D1B104621
:1001600000F048FA29462046BDE8704000F042BA47
:10017000F0B54FF6FF734FF4B4751A466E1E11E0DA
:10018000A94201D3344600E00C46091B30F8027B3B
:10019000641E3B441A44F9D19CB204EB134394B25D
:1001A00004EB12420029EBD198B200EB134002EBB2
:1001B000124140EA0140F0BDF34992B00446D1E952
:1001C0000001CDE91001FF224021684600F0F4FB58
:1001D00094E80F008DE80F00684610A902E004C8FB
:1001E00041F8042D8842FAD110216846FFF7C0FF7C
:1001F0001090AA208DF8440000F099F9FFF78AFFCB
:1002000040F6FC7420684FF01025401C0FD0206889
:1002100010226946803000F078F92068401C08D030
:100220002068082210A900F070F900F061F9A869AF
:10023000EEE7A869F5E74FF080500369406940F6A2
:10024000FC71434308684FF01022401C06D0086838
:1002500000F58050834203D2092070479069F7E788
:100260000868401C04D00868401C03D00020704778
:100270009069F9E70420704770B504460068C34DE3
:10028000072876D2DFE800F033041929631E250021
:10029000D4E9026564682946304600F062F92A46CE
:1002A0002146304600F031F9AA002146304600F0E0
:1002B00057FB002800D0032070BD00F009FC4FF46C
:1002C000805007E0201D00F040F90028F4D100F034
:1002D000FFFB60682860002070BD241D94E80700C3
:1002E000920000F03DFB0028F6D00E2070BDFFF715
:1002F000A2FF0028FAD1D4E901034FF0805100EBAE
:10030000830208694D69684382420ED840F6F8704E
:1003100005684FF010226D1C09D0056805EB8305B8
:100320000B6949694B439D4203D9092070BD55694A
:10033000F4E70168491C03D00068401C02D003E0C8
:100340005069FAE70F2070BD2046FFF735FFFFF731
:1003500072FF0028F7D1201D00F0F7F80028F2D135
:1003600060680028F0D100F0E2F8FFF7D3FE00F05B
:10037000BFF8072070BD10B50C46182802D0012028
:10038000086010BD2068FFF777FF206010BD41684E
:10039000054609B1012700E0002740F6F8742068FF
:1003A0004FF01026401C2BD02068AA68920000F065
:1003B000D7FA38B3A86881002068401C27D020688D
:1003C000FFF7BDFED7B12068401C22D026684FF051
:1003D0008050AC686D68016942695143A9420DD9EA
:1003E000016940694143A14208D92146304600F0E5
:1003F000B8F822462946304600F087F800F078F831
:100400007069D2E700F093F8FFF784FEF6E77069B1
:10041000D6E77669DBE740F6FC7420684FF01026DB
:10042000401C23D02068401C0CD02068401C1FD0EA
:100430002568206805F18005401C1BD027683879A5
:10044000AA2819D040F6F8700168491C42D001680A
:10045000491C45D00168491C3ED001680968491C07
:100460003ED00168491C39D000683EE0B069DAE747
:10047000B569DEE7B769E2E710212846FFF778FEA5
:100480003968814222D12068401C05D0D4F8001080
:1004900001F18002C03107E0B169F9E730B108CA63
:1004A00051F8040D984201D1012000E000208A4259
:1004B000F4D158B1286810B1042803D0FEE72846CB
:1004C000FFF765FF3149686808600EE0FFF722FE1C
:1004D00000F00EF87169BBE77169BFE7706904E06D
:1004E0004FF480500168491C01D000F0CBFAFEE7C0
:1004F000BFF34F8F26480168264A01F4E06111439B
:100500000160BFF34F8F00BFFDE72DE9F0411746B3
:100510000D460646002406E03046296800F054F8EF
:10052000641C2D1D361DBC42F6D3BDE8F08140F69B
:10053000FC700168491C04D0D0F800004FF48051D1
:10054000FDE54FF010208069F8E74FF080510A690F
:10055000496900684A43824201D810207047002050
:10056000704770B50C4605464FF4806608E0284693
:1005700000F017F8B44205D3A4F5806405F5805562
:10058000002CF4D170BD0000F40A0000000000202F
:100590000CED00E00400FA05144801680029FCD0C5
:1005A0007047134A0221116010490B68002BFCD0E0
:1005B0000F4B1B1D186008680028FCD0002010603D
:1005C00008680028FCD07047094B10B501221A605A
:1005D000064A1468002CFCD0016010680028FCD08A
:1005E0000020186010680028FCD010BD00E4014015
:1005F00004E5014070B50C46054600F073F810B9EB
:1006000000F07EF828B121462846BDE8704000F091
:1006100007B821462846BDE8704000F037B8000012
:100620007FB5002200920192029203920A0B000B06
:100630006946012302440AE0440900F01F0651F80C
:10064000245003FA06F6354341F82450401C8242F8
:10065000F2D80D490868009A10430860081D016827
:10066000019A1143016000F03DF800280AD00649C4
:1006700010310868029A10430860091D0868039A3F
:10068000104308607FBD00000006004030B50F4CED
:10069000002200BF04EB0213D3F800582DB9D3F8A1
:1006A000045815B9D3F808581DB1521C082AF1D3C3
:1006B00030BD082AFCD204EB0212C2F80008C3F8CD
:1006C00004180220C3F8080830BD000000E0014013
:1006D0004FF08050D0F83001082801D0002070473A
:1006E000012070474FF08050D0F83011062905D016
:1006F000D0F83001401C01D0002070470120704725
:100700004FF08050D0F830010A2801D00020704707
:100710000120704708208F490968095808471020B0
:100720008C4909680958084714208A4909680958FA
:100730000847182087490968095808473020854923
:100740000968095808473820824909680958084744
:100750003C20804909680958084740207D490968BC
:100760000958084744207B49096809580847482028
:1007700078490968095808474C207649096809589A
:10078000084750207349096809580847542071499F
:1007900009680958084758206E49096809580847E8
:1007A0005C206C4909680958084760206949096854
:1007B00009580847642067490968095808476820AC
:1007C00064490968095808476C2062490968095852
:1007D000084770205F4909680958084774205D4937
:1007E00009680958084778205A490968095808478C
:1007F0007C205849096809580847802055490968EC
:10080000095808478420534909680958084788202F
:1008100050490968095808478C204E490968095809
:10082000084790204B4909680958084794204949CE
:10083000096809580847982046490968095808472F
:100840009C204449096809580847A0204149096883
:1008500009580847A4203F49096809580847A820B3
:100860003C49096809580847AC203A4909680958C1
:100870000847B0203749096809580847B420354966
:10088000096809580847B8203249096809580847D3
:10089000BC203049096809580847C0202D4909681B
:1008A00009580847C4202B49096809580847C82037
:1008B0002849096809580847CC2026490968095879
:1008C0000847D0202349096809580847D4202149FE
:1008D000096809580847D8201E4909680958084777
:1008E000DC201C49096809580847E02019490968B3
:1008F00009580847E4201749096809580847E820BB
:100900001449096809580847EC2012490968095830
:100910000847F0200F49096809580847F4200D4995
:10092000096809580847F8200A490968095808471A
:10093000FC2008490968095808475FF48070054998
:10094000096809580847000003480449024A034B54
:100950007047000000000020000B0000000B0000AA
:1009600040EA010310B59B070FD1042A0DD310C82C
:1009700008C9121F9C42F8D020BA19BA884201D97E
:10098000012010BD4FF0FF3010BD1AB1D30703D0C6
:10099000521C07E0002010BD10F8013B11F8014B7C
:1009A0001B1B07D110F8013B11F8014B1B1B01D198
:1009B000921EF1D1184610BD02F0FF0343EA032254
:1009C00042EA024200F005B87047704770474FF0A6
:1009D00000020429C0F0128010F0030C00F01B800C
:1009E000CCF1040CBCF1020F18BF00F8012BA8BF1A
:1009F00020F8022BA1EB0C0100F00DB85FEAC17CDE
:100A000024BF00F8012B00F8012B48BF00F8012B90
:100A100070474FF0000200B51346944696462039C1
:100A200022BFA0E80C50A0E80C50B1F12001BFF4A7
:100A3000F7AF090728BFA0E80C5048BF0CC05DF80D
:100A400004EB890028BF40F8042B08BF704748BF5B
:100A500020F8022B11F0804F18BF00F8012B7047CF
:100A6000014B1B68DB6818470000002009480A4951
:100A70007047FFF7FBFFFFF745FB00BD20BFFDE719
:100A8000064B1847064A1060016881F308884068E1
:100A900000470000000B0000000B000017040000DE
:100AA000000000201EF0040F0CBFEFF30881EFF3ED
:100AB0000981886902380078182803D100E0000015
:100AC000074A1047074A12682C3212681047000084
:100AD00000B5054B1B68054A9B58984700BD0000B0
:100AE0007703000000000020F00A0000040000006E
:100AF000001000000000000000FFFFFF0090D00386
:02000004000FEB
:1040000000000420C9B40F00F1B40F00F3B40F0096
:10401000F5B40F00F7B40F00F9B40F000000000072
:10402000000000000000000000000000F9450F0043
:10403000FDB40F0000000000FFB40F00394D0F0069
:104040000D510F0003B50F0003B50F0003B50F00AE
:1040500003B50F0003B50F0003B50F0003B50F0044
:1040600003B50F0003B50F0003B50F0003B50F0034
:1040700003B50F0003B50F0003B50F0003B50F0024
:1040800003B50F0025750F0003B50F0003B50F0032
:10409000E1750F0003B50F00B94B0F0003B50F001A
:1040A00003B50F0003B50F0003B50F0003B50F00F4
:1040B00003B50F0003B50F00000000000000000072
:1040C00003B50F0003B50F0003B50F0003B50F00D4
:1040D00003B50F0003B50F0003B50F0075870F0080
:1040E00003B50F0003B50F0003B50F00000000007B
:1040F0000000000003B50F000000000003B50F0032
:1041000000000000000000000000000000000000AF
:10411000000000000000000000000000000000009F
:10412000000000000000000000000000000000008F
:10413000000000000000000000000000000000007F
:10414000000000000000000000000000000000006F
:10415000000000000000000000000000000000005F
:10416000000000000000000000000000000000004F
:10417000000000000000000000000000000000003F
:10418000000000000000000000000000000000002F
:10419000000000000000000000000000000000001F
:1041A000000000000000000000000000000000000F
:1041B00000000000000000000000000000000000FF
:1041C00000000000000000000000000000000000EF
:1041D00000000000000000000000000000000000DF
:1041E00000000000000000000000000000000000CF
:1041F00000000000000000000000000000000000BF
:104200000348044B834202D0034B03B11847704765
:10421000A4820020A4820020000000000548064B74
:104220001B1AD90F01EBA301491002D0034B03B1B4
:1042300018477047A4820020A482002000000000DC
:1042400010B5064C237843B9FFF7DAFF044B13B1DE
:104250000448AFF300800123237010BDA482002026
:104260000000000070BB0F0008B5054B1BB10549ED
:104270000548AFF30080BDE80840FFF7CFBF00BF9F
:1042800000000000A882002070BB0F00A3F5803A58
:10429000704700BF174B002B08BF134B9D46FFF71D
:1042A000F5FF00218B460F461348144A121A00F0FE
:1042B00039F80E4B002B00D098470D4B002B00D047
:1042C00098470020002104000D000D48002802D06E
:1042D0000C4800F00FF900F077F82000290000F0FA
:1042E0008DFA00F011F800BF000008000000000087
:1042F0000000000000000420A48200205CCD00200B
:10430000F5440F0001450F0008B50021044600F0F8
:1043100091F8034B1B6803B19847204600F044F91D
:10432000C0820020830730B547D0541E002A3ED0FB
:10433000CAB2034601E0013C39D303F8012B9D07C3
:10434000F9D1032C2CD9CDB205EB05250F2C05EBAB
:10435000054535D9A4F1100222F00F0C03F1100E1F
:10436000E6444FEA121C1A46C2E90055C2E902555A
:1043700010327245F8D10CF1010214F00C0F03EB6E
:10438000021204F00F0C13D0ACF1040323F003036A
:104390000433134442F8045B9342FBD10CF0030452
:1043A0002CB1C9B21C4403F8011BA342FBD130BDA0
:1043B00064461346002CF4D1F9E703461446C0E7DF
:1043C0001A46A446E0E700BF70B50F4B0F4DAB4255
:1043D000A3EB050607D0B610002455F8043B0134C2
:1043E0009847A642F9D807F099FA094D094B5E1B88
:1043F000AB424FEAA60606D0002455F8043B013430
:104400009847A642F9D870BD988200209882002073
:1044100098820020A0820020704700BF704700BF34
:10442000024B13B1024800F065B87047000000006D
:1044300001450F002DE9F04F2C4B2D4F83B08246E4
:104440001868CDF804A08B46FFF7E6FF3E684EB330
:104450004FF000094FF001087468651E22D4013442
:1044600006EB8404BBF1000F23D173682268013B83
:10447000AB420CBF7560C4F8009072B1D6F88811D9
:10448000D6F804A008FA05F30B421CD190477368D4
:104490003A68534523D1B24221D1013D6B1CA4F1AE
:1044A0000404DFD1114B186803B0BDE8F04FFFF7EB
:1044B000B5BFD4F800315B45D7D0013D6A1CA4F1EB
:1044C0000404F6D1EEE7D6F88C01D4F8801003424C
:1044D00009D10198904773683A685345DBD0002AA8
:1044E000E0D01646B8E708469047D0E700800020A5
:1044F000C8820020002301461A46184600F014B86E
:1045000038B5074D074C2C1BA41005D0013C55F8BD
:10451000043D9847002CF9D1BDE8384007F004BAB3
:10452000A4820020A08200202DE9F8431B4D0646FE
:10453000286898460F469146FFF76EFF184B1C6897
:104540001CB3286865681F2D22DC4EB96B1C023530
:10455000636044F82570FFF761FF0020BDE8F88331
:1045600004EB85010123C1F88890D4F88821AB4081
:104570001A43022EC4F88821C1F80881E6D1D4F884
:104580008C211A43C4F88C21E0E7064C1C60D8E764
:10459000FFF744FF4FF0FF30E0E700BF008000204E
:1045A000C8820020CC820020FEE700BF10B50C4678
:1045B000E0B90968C1B10E48814207D0431A3B2BCC
:1045C0000ED83C235A5CC254013BFBD2084800225F
:1045D0003C2103F0FDFA074B18800023236010BD37
:1045E0003C2207F00CF8F1E70E23F7E70123F5E78B
:1045F000827F0020807F0020074A6FF002039E45E3
:1046000002D1EFF3098101E0EFF308818869A0F19D
:1046100002000078104700BFAD450F0038B50446D2
:10462000A8B13C210C48002203F0D2FA0B490B88B8
:1046300083420ED1084A02F13C0052F8045B44F870
:10464000045B8242F9D101330B80002038BD0E207B
:10465000FCE70B20FAE700BF827F0020807F00206C
:104660000B2970B50446154608462FD92389053312
:1046700004EB43012044431ADAB2012A26D98142CD
:1046800024D8134806F0BBFF2388522B06D1AB0772
:1046900011D062884CF668639A420CD00F2014E067
:1046A00034F8022F824204D0AE89964203F101030E
:1046B00008D1002009E034F8081F00234FF6FE70EF
:1046C0004FF440559942EBD80B2070BD0920FCE710
:1046D0005C84002008B5002203F07AFA034B1B88A3
:1046E000834214BF0B20002008BD00BF5C84002063
:1046F00038B50C4C21684B1C054612D00A484FF4C3
:10470000805206F043FF48B115B1206800F05AFD11
:10471000054920684FF4806200F074FD4FF0FF33CC
:10472000236038BD04800020688400202DE9F0411A
:10473000DFF84480044624F47F671846D8F8003038
:1047400027F00F07BB420D46164609D0FFF7D0FFF2
:104750000848C8F800704FF48052394606F04FFF01
:104760000448C4F30B04324629462044BDE8F04116
:1047700006F045BF6884002004800020BFF34F8FFF
:104780000549064BCA6802F4E0621343CB60BFF3ED
:104790004F8F00BFFDE700BF00ED00E00400FA0509
:1047A0004BDF704710DF704711DF704713DF704732
:1047B00018DF704760DF704769DF704761DF70475F
:1047C0001FB50023CDE9013303936846022300930C
:1047D000FFF7EEFF05B05DF804FB08B54FF0E023EE
:1047E000D3F8F03DDB0700D500BEFFF7C7FF0000A0
:1047F000014B1878704700BF6A9400202DE9FF48EC
:10480000B04BB14AC3F8402500F0C0FA00F062FF97
:10481000002000F095FB00F0DDFF48B1052000F01E
:104820008FFB00F0E9FF01F00DF8062000F088FB97
:104830004FF08043A54FD3F81C45B12C0CBF01238A
:1048400000233B7040D0A4F1A8014B424B41A04D46
:104850004FF080422B70D2F8001401F00108002BB9
:1048600040F00C814E2C31D0572C2FD0994B1B6827
:104870001A68994B9A4203D1B8F1000F40F0FE80BC
:104880006D2C40F004814FF080430022C3F81C25BA
:1048900000F0BEFB00F058FEA0B100F09BFF88B90D
:1048A0004FF440535A688D4B9A4205D13B780BB96F
:1048B000FFF786FFFFF778FF864B1B6800221A6020
:1048C00000F05CFFFFF75AFF0123C0E7C2F81C3578
:1048D00001262B78002B40F0DF80122000F086F9B3
:1048E00010B1272000F082F900F001032B7000F0D6
:1048F0002BFEDFF8E8B1774ADFF804A2814628B141
:1049000026B913681968764B994214D04FF4405376
:10491000596859450ABF9B684FF4905303F50073DB
:104920001B68534500F0C880002E40F0C580B9F1E7
:10493000000F40F0B38000214FF4405012684368EC
:104940005B450ABF83684FF4905303F50073186802
:10495000634B504518BF0023136011B9B9F1000F24
:1049600096D12B78002B00F0CD80082000F0E8FADB
:104970003B780BB9FFF724FF01234FF474203B7001
:10498000FFF714FF574B58491868019001A8FFF72B
:1049900009FF564991F81623EC2352091341DA070F
:1049A00008D5534B9A68002A00F088801A6842F4B0
:1049B00080021A600C224F4B029300210DEB020083
:1049C000FFF7B0FC40F20113029A039303A94020C1
:1049D000FFF7F2FE0C2200210DEB0200FFF7A2FC14
:1049E0009DF80C30029A43F0010303A9A0208DF832
:1049F0000C30FFF7E1FE0C2200210DEB0200FFF767
:104A000091FC01261723029AADF80E3003A923204A
:104A10008DF80C60FFF7D0FE0C2200210DEB020098
:104A2000FFF780FC0623029A8DF80C6003A9202072
:104A30008DF80E60ADF81030FFF7BEFE02A8FFF74C
:104A4000B9FE4FF4405328785A685A450ABF9B680C
:104A50004FF4905303F500731B68534503D0572C54
:104A600001D04E2C58D1012240F6B83100F04AFE58
:104A70002B78002B53D0FFF797FE09E74FF08043C8
:104A800000226D2CC3F81C257FF422AF00E7122012
:104A900000F0ACF806461CE7012025E7B8F1000F4E
:104AA0003FF449AF13680C491960134B134843F0A6
:104AB00001039847074A3EE701213DE74FF4800391
:104AC0000B6077E700A00040EFBEADDE68940020E9
:104AD0006A94002008800020D51A5A00DBE5B15105
:104AE0007E67E54E46B90F00DB470F0000E100E0AE
:104AF000049C00200080002040B90F000048E8011D
:104B00007CB0EE87022000F01BFAA4F14E0358425D
:104B1000584103F033FE94E700221146A6E703F064
:104B20007DFEB5E610B58EB03423ADF802300DF140
:104B30000201002301A8ADF80430FFF73FFE044650
:104B400040B9BDF80430102B07D0112B0CD001A8B0
:104B500001F00AF920460EB010BD054B01221A7073
:104B6000072000F0EDF9F2E7014B18700820F8E794
:104B70006994002013B5002301A80193FFF710FEEC
:104B8000044650B9019802F07DFB019B093B022BC2
:104B900003D8034AD05604F0ADFC204602B010BD45
:104BA00034B90F0008B5FFF7BDFF0528FBD1FFF7AB
:104BB000E1FF0528F7D108BD0021024A084602F0AE
:104BC00027BF00BFA54B0F001F2884BF00F01F00A8
:104BD000044B054A98BF4FF0A04300F5E07043F83E
:104BE00020207047000300500C0003001F288ABFDC
:104BF000064B4FF0A04300F01F00D3F8103523FA06
:104C000000F0C04300F00100704700BF00030050F7
:104C10007047704700234FF0FF328360C0F80035C3
:104C2000C0F86025C0F86425C0F86825C0F86C2578
:104C300040F2FF32C0F80435C0F80825C0F80C3542
:104C4000C0F81035C0F81435C0F82035C0F8243548
:104C5000704700001B4B00221F2930B5C3F8002508
:104C60008BBF01F01F030B46174A4FF0A04203F51C
:104C7000E074032542F82450012404FA03F3C2F837
:104C8000083500F5AC700F4B002243F82010FF21CF
:104C9000C3F804250220C3F808150421C3F80C1535
:104CA000C3F810050948C3F81425C3F82005C3F854
:104CB0002415C3F82825C3F82C25C3F80045C3F8EC
:104CC000102130BD00C0014000030050BC970020FF
:104CD0000148FFF79FBF00BF00C00140074B82B0F3
:104CE00023F81010064B0022C3F81021D3F810212E
:104CF0000192019A01229A6002B07047BC9700208D
:104D000000C001400A4A0B4B11681B68B1FBF3F26B
:104D100003FB1211B1EB530F4FEA530288BF591A2C
:104D20004F2359430020B1FBF2F189B2FFF7D6BF00
:104D3000C4970020B8970020024A1368013313601B
:104D4000FFF7E0BFC49700200F4B00221421C3F8E7
:104D50000C25C3F80425C3F80815C3F81425C3F8B7
:104D60001025C3F82825C3F82C251A22C3F860257E
:104D70004FF0FF32C3F86425C3F86825C3F86C25EB
:104D80000122C3F8002570470010024070B54FF0B3
:104D9000804501240026EC601220C5F81865AC603F
:104DA000FFF712FF2720FFF70FFF354B4FF4C850D6
:104DB000234398471F213046FFF74CFF4FF0A04395
:104DC0000322C3F834274FF40052C3F80825FFF735
:104DD000BBFFC5F88045C5F87845FFF719FF4FF0D0
:104DE0001023D3F8043303F00703042B25D0254AFE
:104DF000C2F80445D2F80034002BFBD04FF010214C
:104E0000D1F8043323F0070343F00403C1F804335B
:104E10000023C2F804351B4AD2F80034002BFBD023
:104E2000BFF34F8F1849194BCA6802F4E06213436D
:104E3000CB60BFF34F8F00BFFDE7154A1E2108204E
:104E400002F0C2FD08B102F07BFE02F023FD0E4924
:104E5000104BE02081F823001B684FF47A72B3FBFB
:104E6000F2F3013BB3F1807F08D24FF0E0225361AF
:104E7000002381F8230093610723136170BD00BFF5
:104E800050B90F0000E0014000ED00E00400FA0519
:104E90006C9400200C800020F0B585B043788DF82C
:104EA000043083788DF80530244903788DF8063076
:104EB00048F20606002348F20D0703F1180001AD81
:104EC00080B21A4615F801EB083380249BB21EEA23
:104ED000040F0CBFB446BC4621F812C0013292B296
:104EE00093424FEA5404F2D18342EAD1A82BE4D191
:104EF0004FF40043A1F85031A1F8523103F180433F
:104F000003F5C833AA22C3F82015C3F824250022CC
:104F1000C3F81021D3F810210292029A01229A605C
:104F2000D3F81021002AFBD00022C3F81021D3F8B7
:104F300010310393039B05B0F0BD00BF5C960020C9
:104F400013B5214900230C680094019308281AD84E
:104F5000DFE800F00C050C19191308292B004FF499
:104F60007F430093194B40F6B8320BE04FF47F03B8
:104F700000934FF49672154B04E04FF47F030193B6
:104F8000124B64221A60009B1148019A034000935F
:104F900072B102400F4B019201221A7001A8FFF773
:104FA0007BFF02B010BDFF23DBE74FF0FF13DFE70D
:104FB0009C4202D00B606846F1E7064B1B78002B41
:104FC000EFD00148EBE700BFB4970020B89700206E
:104FD0000F0F0F00B097002013B50B4C002344F0C7
:104FE00001044FF44860ADF804308DF80630A04756
:104FF00001A8FFF751FF4FF44860A0470348FFF7AF
:1050000009FE02B010BD00BF50B90F0000100240F1
:105010004FF0E02310B500241C61FFF759FEFFF7A5
:10502000DBFF154B4FF40032C3F8802003F1C0437F
:1050300003F53C534FF48032C3F84823C3F80823E8
:1050400001225A609A604FF080430220DA602346C2
:105050000A4C1F2BD5BF1A4603F01F024FF0A04188
:10506000214602F5E0720133302B41F82200F0D1E5
:10507000FFF7CFFD10BD00BF00E100E000030050CE
:1050800000F1804382B01A68002A14BF012000207A
:1050900004D000221A601B680193019B02B0704784
:1050A0000F4A1378D3B903784FF08041C3F340031C
:1050B000C1F88035037803F00103C1F87835094B56
:1050C0001968C90706D4E02183F800130121C3F849
:1050D000801119600123044813707047034870471A
:1050E000D497002000E100E00000AD0B0C00AD0BF8
:1050F000014B02681A607047C89700204FF0804348
:105100004FF46072C3F804237047000010B54FF0ED
:105110008043D3F80443620707D54FF48470FFF748
:10512000AFFF10B11E4B1B689847A30608D54FF47C
:105130008A70FFF7A5FF18B11A4B00201B6898472B
:10514000600608D54FF48C70FFF79AFF18B1154B25
:1051500001201B689847210608D54FF48E70FFF791
:105160008FFF18B1104B00201B689847E20508D547
:105170004FF49070FFF784FF18B10B4B01201B68B0
:105180009847A3050AD54FF49270FFF779FF28B12D
:10519000054BBDE810401B680220184710BD00BF3A
:1051A000D0970020CC970020C8970020044AD2F85E
:1051B0000034DB07FBD50160BFF35F8F704700BF92
:1051C00000E001404FF080531A69B0FBF2F302FB9C
:1051D000130373B9084B0222C3F80425C3F808056A
:1051E000D3F80024D207FBD500220448C3F80425D5
:1051F00070470348704700BF00E001400000AD0B5E
:105200000A00AD0BF8B50B4B1546012206460F46BA
:10521000C3F804250024A54204D1064B0022C3F89C
:105220000425F8BD57F8241006EB8400FFF7BEFFF5
:105230000134F0E700E00140BFF34F8F0549064B12
:10524000CA6802F4E0621343CB60BFF34F8F00BF24
:10525000FDE700BF00ED00E00400FA054FF08053C9
:10526000D3F83021082A03BFD3F83401B0FA80F014
:10527000400900207047000008B54FF08053D3F874
:105280003021082A4ED14FF080420021C2F80C1183
:10529000C2F81011C2F8381502F54042D3F80414D0
:1052A000C2F82015D3F80814C2F82415D3F80C144A
:1052B000C2F82815D3F81014C2F82C15D3F814141A
:1052C000C2F83015D3F81814C2F83415D3F81C14EA
:1052D000C2F84015D3F82014C2F84415D3F82414AA
:1052E000C2F84815D3F82814C2F84C15D3F82C147A
:1052F000C2F85015D3F83014C2F85415D3F834144A
:10530000C2F86015D3F83814C2F86415D3F83C1409
:10531000C2F86815D3F84014C2F86C15D3F84434B9
:10532000C2F87035FFF79AFF18B1484B484AC3F8E6
:105330008C26FFF793FF18B1464BFB22C3F81825C4
:10534000FFF78CFF58B14FF080424FF08051D2F8F8
:10535000E43ED1F8581261F30303C2F8E43EFFF7CC
:105360007DFF20B13C4B4FF40072C3F840264FF054
:105370008053D3F83031082B09D14FF08043D3F854
:105380000024D10744BF6FF00102C3F80024334A60
:10539000D2F8883043F47003C2F88830BFF34F8FDF
:1053A000BFF36F8F4FF01023D3F80C22D2071DD517
:1053B0002B4B0122C3F80425D3F80024002AFBD08C
:1053C0004FF01022D2F80C3223F00103C2F80C3255
:1053D000234BD3F80024002AFBD00022C3F8042575
:1053E000D3F80024002AFBD0FFF726FFD3F80022D1
:1053F000002A03DBD3F80432002B22DA184B0122F7
:10540000C3F80425D3F80024002AFBD04FF0102263
:105410001221C2F80012D3F80024002AFBD04FF06A
:1054200010231222C3F804220D4BD3F80024002AC3
:10543000FBD00022C3F80425D3F80024002AFBD0B7
:10544000D2E7084B084A1A6008BD00BF0050004070
:105450004881030000F000400090024000ED00E0B1
:1054600000E001400C8000200090D00313DF704763
:1054700018DF7047064B10461A78012A03D101291C
:1054800004BF02221A7008B102F05ABB704700BF75
:105490001998002008B5FFF7ABF988B111481C2115
:1054A00001F082FF08B102F04BFB0F490D480023C9
:1054B0001C2201F069FF98B1BDE8084002F040BB32
:1054C0004FF47F20FFF77EFE072207494FF47F202D
:1054D000FFF798FE054B1A78012A04BF02221A70C2
:1054E00008BD00BF1C980020D89700201998002004
:1054F00070B5124C124D134ED4F800347BB1C4F881
:105500000056C4F80456C4F80856C4F80C56C4F83B
:105510001056C4F81456C4F81856C4F81C5602F0B5
:10552000E1FA05F08EFF20B104F0ACFD002005F09B
:10553000B5F93378023B022BDED870BD0000014084
:105540003546526E1998002013B54FF44053124A55
:10555000596891420CBF9C684FF4805401A800F038
:105560009FF92368013302D16368013311D0019B95
:105570001A88012A0DD1588820B199680022204646
:1055800002F026FB019B5B881B1A5842584102B06F
:1055900010BD0020FBE700BFDBE5B15184B02DE971
:1055A000F34108AC84E80F009DF82080BDF822701C
:1055B00001A80E4615461C4600F072F9B8F1060F18
:1055C00010D8DFE808F00414332558496100304B47
:1055D0000122FF215F809C601A8099802D4B1A70F8
:1055E000FFF758FF02B0BDE8F04104B07047284B08
:1055F000721922449A60A5221A80C3E90365FF222A
:105600009A800C9A5F805C619A61224B0122E6E7E6
:10561000019A1F4B11881980518892689A60AA22BA
:10562000C3E9036559809A805C61EEE7019A184BE3
:105630001188A5290AD100229A60FF221A60FF2250
:105640009A800022C3E903225A61DEE7198051885B
:10565000926859809A60F2E7FFF7CAF840B100F00B
:105660008DFD08B102F06CFA0A4B03221A70B9E7FB
:1056700000F00EFAF5E7064B00229A60FF221A604E
:10568000019A92889A80ABE7024B0422EEE700BFB2
:10569000D89700201998002000B50C4B1B7889B0D2
:1056A00063B90B4B1B786BB905238DF80C30079B46
:1056B000009303AB0FCBFFF771FF03E004F0DCFABC
:1056C0000028EED009B05DF804FB00BF1898002058
:1056D000F49700201FB50023CDE90233074B019357
:1056E00001F022FE30B906494FF47F2301A84B6038
:1056F00001F038FE05B05DF804FB00BF75540F00E3
:105700001C98002070B505460E460AB180F00102D3
:10571000154B02F001021A7000F0A8FF044628B9E8
:1057200035B100F087FC0446FFF7E2FE204670BD6D
:10573000BEB10E4B0E4A0F481D70294602F0DAF832
:105740004FF400444FF4FA7029464FF47A72002364
:10575000E6FB040105F06AFF2A460146064802F00E
:10576000DBF800F071F9DEE718980020F4970020CC
:1057700099560F0068B90F00F89700201FB5134B1A
:105780004FF0FF32C3F88020C3F880214FF440531C
:105790000F4A596891420DD19C682046FFF766FE7A
:1057A00010B14FF000531C60204604B0BDE810401B
:1057B00000F09AB80023CDE902334FF48054062359
:1057C0006846CDE90034FFF753FEE9E700E100E069
:1057D000DBE5B15107B501A800F062F8019B1A881A
:1057E000A52A07D09888A0F1AA035842584103B0CF
:1057F0005DF804FB0120FAE710B501F04FF9A8B1FC
:105800000E4B0F4843F00103984701F0B1F808B17F
:1058100002F096F901F042F908B102F091F901F0B5
:10582000F3F8044638B102F08BF904E001F010F906
:1058300004460028E4D1204610BD00BF60B90F0027
:1058400000A8610000B589B003AB142200211846FE
:10585000FEF768FD02228DF80C20002200920FC88E
:10586000FFF79CFEFFF744FE002009B05DF804FB43
:1058700013B5044601A800F013F8019B1A88228092
:105880005A8862809A68A2609A88A280DA68E26088
:105890001A6922615A6962619B69A36102B010BDF5
:1058A000014B0360704700BF00F00F00F0B50346E6
:1058B000186880F308885868FF2464B2EFF3058500
:1058C000002D01D1A64600472546064621273FBAAE
:1058D000F0B40024002500260027F0B4F92040B2DF
:1058E000004700BFF0BD00BFFFF7E0BFF7B50023E2
:1058F0000DF1020101A8ADF80230019302F0A2FD02
:10590000034600BB019805785DB3184A92F8301041
:10591000032928D00C2707FB03F416191159E1B904
:1059200092F8303015510133DBB282F83030BDF8D7
:1059300002300F4A04309B08013BB0600846736098
:1059400002F066F80346019828B123B102F096FDF3
:1059500008B102F0F5F803B0F0BD0133042BDAD141
:10596000F1E70723EFE70423EDE700BF24980020C9
:10597000B9590F00084609B102F0E2B870470000BB
:1059800010B50C2343430B4AD418D158A06879B101
:1059900092F830100139C9B282F830100438002171
:1059A000C4E90111D15002F069FD08B102F0C8F854
:1059B000002010BD24980020214B70B50122214EFB
:1059C0001A7096F8303003B970BD1E4C002523685C
:1059D00083B1013B042B07D8DFE803F01C06120358
:1059E0002800204600F0D4FEE8B2FFF7C9FF08B156
:1059F00002F0A6F80135042D04F10C04E7D1E0E72C
:105A0000A3686360204600F067FE0028ECD002F037
:105A100097F8E9E7204600F043FF00F01FFF08B1C8
:105A200002F08EF80520FFF78BFADDE700F064FF47
:105A300000F082FFBDE870400620FFF781BA00BF8A
:105A4000F49700202498002008B50E4B002283F81C
:105A5000302004210139C3E901221A6003F10C034B
:105A6000F8D1094800F032FE02F084FC08B102F0DF
:105A700067F8064802F06AFC08B102F061F80020FD
:105A800008BD00BF2498002075590F00ED580F0085
:105A900008B50020FFF774FF0120FFF771FF022017
:105AA000FFF76EFF0320FFF76BFFBDE8084002F031
:105AB000A9BC006870476CDF70476DDF70476EDF10
:105AC00070476FDF704772DF704773DF704774DFB6
:105AD000704776DF704777DF70477ADF70477CDF8B
:105AE00070477FDF704786DF70478FDF704790DF3A
:105AF0007047AFDF7047B0DF7047B1DF7047B2DF8C
:105B00007047B5DF704764DF704766DF70470C2869
:105B10000AD8DFE800F00709090909090B09140987
:105B2000090F0D00012070470620704703207047C1
:105B30000420704704290CBF05200620704702206E
:105B4000704701F0FDBF10B5044608460321FFF77A
:105B5000DEFF0246204601F05BF918B1BDE81040B7
:105B600001F0EEBF10BD00000346032B10B5084640
:105B7000144620D0042B23D169B1124B18884FF65C
:105B8000FF7398421CD01321FFF7A3FFC0B1BDE8FB
:105B9000104001F0D5BF104602F078F808B101F0CE
:105BA000CFFF094B1B689C420AD101220321074801
:105BB00001F02EF9EAE70121FFF7A9FF0246F6E717
:105BC00010BD00BF1880002090980020E8980020A9
:105BD000F8B50A4DAB889E181D2E14460DDC2F68B3
:105BE000FE1802F1010C07F803C07070B01C05F03C
:105BF00006FDAB8802331C44AC80F8BD78980020C9
:105C0000F0B54D4E347893B0002C40F091804B4D60
:105C1000102221462846FEF785FB494B2B601822AF
:105C200021460CA8FEF77EFB01238DF83030282397
:105C30000E93444B1B78002B7CD0434B02AC03F1FA
:105C4000100518685968224603C20833AB4214464F
:105C5000F7D13E48102202A905F098FC002869D02F
:105C60003B483C4C04600121FFF729FF08B101F0DB
:105C700067FF364B06AA03F1100C174618685968DF
:105C8000154603C5083363452A46F7D12068A28824
:105C90000A903148A379ADF82C20002101228DF81B
:105CA0002E300760FFF70DFF08B101F049FF032315
:105CB0008DF8443004238DF8063041F23053ADF8AE
:105CC0000830264B06AA9B798DF80A300DF10701A2
:105CD00002A8FFF718FF012210460DF10601FFF799
:105CE00077FF1F4805F099FC1D49C2B20920FFF754
:105CF0006FFF102206A90620FFF76AFF0F49194817
:105D00000CAAFFF7E0FE08B101F01AFF154C0422BF
:105D100021780120FFF7DFFE08B101F011FF2078A4
:105D20000121FFF7D2FE08B101F00AFF0123337011
:105D300013B0F0BD0623BEE7D2980020789800206B
:105D400058980020949800200ABA0F009D980020CF
:105D50008C9800209698002088980020E8980020D1
:105D60006CB90F0010800020F0B504460146B1B0B8
:105D7000A64801F081F82388262B3BD80F2B04D8A6
:105D8000012B00F0CC8031B0F0BD103B162BFAD8BF
:105D900001A252F823F000BF215E0F002F5E0F001A
:105DA000875D0F00615E0F005B5F0F00875D0F0076
:105DB000875D0F00875D0F00875D0F00875D0F0017
:105DC000775F0F00875D0F00875D0F00875D0F0015
:105DD000875D0F00875D0F00875D0F00E95F0F0093
:105DE000875D0F00DB5F0F00875D0F00875D0F0091
:105DF000E15E0F00513B9AB2052AC4D8052BC2D8E8
:105E000001A252F823F000BF2B5F0F00775F0F0055
:105E1000875D0F00875D0F00FB5F0F00C75E0F00FF
:105E20007B4BA2881A807B4B00221A70ABE7802341
:105E3000774CADF82430784B208832221A6010A9B4
:105E4000012309AAFFF75BFE08B101F079FE734B4D
:105E50001B780BB9FFF7D4FE4FF6FF73238092E750
:105E60006F4B03AC9A79186899888DF822200790B7
:105E7000DA1DADF820101733264610685168254604
:105E800003C508329A422C46F7D1664B09AA03F1A2
:105E90001807154618685968144603C40833BB42EE
:105EA0002246F7D11868206059485F4A008810AB35
:105EB0008521CDE91456FFF714FE00283FF463AFA7
:105EC00001F03EFE5FE7A379002B7FF45CAF504BFF
:105ED00013211888FFF7FDFD00283FF454AF77E049
:105EE000237A012B7FF44FAF4A4B00221A704A4BA2
:105EF00019680139196069B910AB14221846FEF708
:105F000011FA05228DF84020149A00920FC8FFF76D
:105F100045FB38E731B0BDE8F040FFF771BE3C4BC0
:105F200000211888FFF7F1FDD6E7A379002B3FF495
:105F30002AAFA27B043A022A3FF625AF022B18BFF4
:105F400001238DF840304FF4C173ADF84430304B2D
:105F500010A91888FFF7CFFDAFE7314A258A508D89
:105F600002F118010023854218BF19460732A088A4
:105F7000FFF7B9FDB0E7264C20884FF6FF75A84221
:105F800025D02A4B1B78EBB1294901230822FFF7C2
:105F9000B4FDE8B90246014602232088FFF7ADFDB3
:105FA000B0B920882A460C21FFF7A3FDA0F5405385
:105FB000023B012B7FF6E7AE08283FF4E4AE112840
:105FC0008AD1E0E61A461946FFF797FD84E70820D4
:105FD00031B0BDE8F04001F0B3BD0D4B0022188890
:105FE0001146FFF784FD77E70023ADF84030084BFA
:105FF00010A91888FFF779FDC5E6E188044B172939
:10600000188828BF1721FFF77CFD65E7E898002076
:1060100018800020D298002014800020D4980020FE
:1060200096980020AE98002018990020949800209F
:10603000CA98002030B5434A4348002395B01370F6
:10604000424A137000F042FB01F0E0FD04460028D4
:1060500061D13F48FEF7E2FA00285FD13D4B0122B3
:106060001A7011233C488DF8043005F0D6FA3A49ED
:1060700082B201A8FFF733FD08B101F061FD0822EB
:10608000002104A8FEF74EF9344A4FF0C87304A863
:10609000CDE90423FFF721FD08B101F051FD0021F6
:1060A0000C2201A8FEF73EF90823ADF804302C4B72
:1060B00002932C482C4B039301A900F02DFD08B14D
:1060C00001F03EFD294D4022002104A8FEF72AF9E7
:1060D000284605F0A2FA0595254DADF81000284692
:1060E00005F09BFA0795234DADF81800284605F0FA
:1060F00094FA1123ADF8300004A8ADF84C300D959A
:1061000000F0CEFF1C4B30221A7007225A7010226A
:106110009A70FFF775FD204615B030BD04A8FFF753
:10612000CCFC08B101F00CFD9DF8113004A801333E
:106130008DF81130FFF7BFFC002892D001F000FD70
:106140008FE700BFD4980020695B0F00E59800201E
:1061500096980020949800206CB90F000800180051
:10616000CD610F00E8980020435B0F0073B90F006A
:106170007CB90F0082B90F001899002010B50F4BA1
:1061800001221A700E4B18884FF6FF73984207D001
:106190001321FFF79EFC08B101F0D2FC002010BDD6
:1061A000084C2378002BF9D0074B1878FFF78FFCA9
:1061B00008B101F0C5FC00232370EFE7D49800205C
:1061C00018800020D298002010800020F0B50B78B5
:1061D00089B005460C46092B35D8DFE813F02D00B1
:1061E000360041000A001900260007011001440092
:1061F000150100F081FB0421FFF789FC02462846C7
:1062000000F006FEF8B109B0BDE8F04001F098BC1E
:10621000FFF7B4FF08B101F093FC00F08DFB90B1E3
:1062200009B0BDE8F04000F095BBFFF7A7FF0028DC
:10623000F6D001F085FCF3E7764B01221A704B682B
:106240001A78754B1A7009B0F0BD724B02261E7099
:106250004B681B78012BF6D100F000FB3146CBE7F1
:106260006C4B0322EEE70520FEF76AFE694B1E78B1
:10627000022E37D0032E59D0012EE4D104AB1022C8
:1062800018460021FEF74EF8634A237A12788DF8FB
:106290001020002203920C2B4FF00302CDE90120C5
:1062A00008D03146284600F0B3FD0028CBD001F0DD
:1062B00047FCC8E763681846FFF7FBFB0590181D0D
:1062C000FFF7F7FB069003F10800FFF7F2FB0790DA
:1062D00001A800F001FA0028B5D03146FFF717FCFD
:1062E0000246DFE7237A13F0030011D0C0F1040265
:1062F0001A44D2B219464FF0000C0E4601316768BD
:10630000C9B2914207F806C0F7D11B1A04332372B1
:106310000123049363680693237A04A89B080593DA
:1063200000F0BEFA00288ED00221D7E7207A83073A
:1063300002D03246314662E7384E0190314601F0D4
:106340007BFC014618B12846FFF7FDFB7BE761683F
:10635000019A306805F053F9019801F0D3FC014629
:106360000028F0D101A9304601F0DCFC01460028EC
:10637000E9D104230493019B9B08059304A8336887
:10638000069300F005FA074640B9254A237A1168BA
:106390000B441360234B32681A6054E709281BD161
:1063A0001F4B217A1A68114419601F4B1B78002B70
:1063B0003FF449AF1D4C2388013B9BB22380002B47
:1063C0007FF441AF284600F0E9FC08B101F0B8FBCA
:1063D000174B1B88238036E7306801F057FC0146D5
:1063E00010B12846FFF7AFFB3946ACE70E4B012250
:1063F0001A700F4A8B8813800C4A138023E70A4ACD
:10640000002313700A4AF8E7054B196800F08AFC6C
:10641000F8E600BFE5980020E4980020D898002016
:10642000E098002090980020D3980020DC9800206D
:10643000DE98002018DF70470129F8B50D46144694
:106440001E4607D0032912D00CB32046BDE8F84001
:1064500001F076BB0E4B1B78052BF5D10D4B1B685D
:10646000002BF1D03246214604209847ECE7084F34
:106470003B78022BE8D1084B5B689847054B3D7091
:106480001B68002BE0D0324621462846EDE7F8BDD8
:10649000949900202C9900202099002030B589B0D3
:1064A00003AC142200212046FDF73CFF094B1B885A
:1064B000ADF80E30084BDB6806930025079B8DF87E
:1064C0000C50009394E80F00FFF768F8284609B0D5
:1064D00030BD00BF3C9900208099002000B589B0F4
:1064E00003238DF80C300A4B1B88ADF80E30094B96
:1064F0005A6804929A68DB680693079B009305929A
:1065000003AB0FCBFFF74AF8002009B05DF804FB9E
:106510003C9900208099002000B589B001238DF8B6
:106520000C300F4B0F4A1B88ADF80E304FF4405320
:106530005968914208BF9A680B4B5968049118BF7B
:106540004FF480529968DB6806930591009203AB83
:106550000FCBFFF723F8002009B05DF804FB00BF64
:106560003C990020DBE5B1518099002000B589B04D
:1065700003AB142200211846FDF7D4FE04228DF847
:106580000C20002200920FC8FFF708F809B05DF850
:1065900004FB0000194BF7B5194D1D60194B022281
:1065A0001A70FEF725F9184B044648B119682846B9
:1065B00000F0FAFEF8B103B0BDE8F04001F0C0BA57
:1065C0001D68124F013D2D0B01354FF44056736885
:1065D000BB420CBFB0684FF4805000EB0430013474
:1065E000FEF7F0FDA542F2D80023054800931A46B5
:1065F0000321FFF721FF03B0F0BD00BF3099002059
:10660000349900209499002090990020DBE5B15145
:10661000F0B51F4685B00323CDE900300546960846
:1066200068460C4602910396FFF704FFE0B1B4F50B
:10663000805F11D801236846CDE90035CDE90246D7
:10664000FFF7F8FE80B903236846CDE90035CDE9B0
:106650000246FFF7EFFE07E03B463A46E11BE81B28
:10666000FFF7D6FF0028E5D005B0F0BD1FB5104BF1
:106670000193104B104900241C70104B01A8CDE968
:1066800002441C8000F06EFE70B94FF440530C4A77
:1066900059689142084A0CBF9B684FF4805353607D
:1066A000084B00221A600124074B1C7004B010BD77
:1066B00039640F003E990020349900203C99002055
:1066C000DBE5B1519899002094990020014B1860A6
:1066D000704700BF2C99002038B54368224C0FCB7F
:1066E00084E80F002378590701D59A0735D16068EF
:1066F000850732D1A26891072FD1E16811F0030418
:106700002BD1104408441949B2F5204F086026D80F
:106710004FF44052164955688D420ABF92684FF4B3
:106720006922C2F56A22904219D8DA0713D4114AB5
:1067300013F0020F104B08BF1346104A10491160A6
:106740001049C2E90113104B1B78012B09D1FFF747
:1067500021FF204638BD0D4BEFE70624F9E70C2456
:10676000F7E70824F5E700BF809900209099002002
:10677000DBE5B1519D640F00DD640F00209900201E
:1067800095650F006D650F009499002019650F0045
:106790002DE9F74300284FD08668B3074ED12A4B26
:1067A0001B78052B4CD1294D42682B68DFF8A4904B
:1067B00003EB82039400D9F80020934206D94FF0EE
:1067C000FF332B600C2003B0BDE8F083FEF710F818
:1067D000DFF88480A0B12B68D8F80000224631464B
:1067E00000F0D2FD0028EED12B681C44D9F800300F
:1067F0002C609C4226D1FDF7FBFFD0B10020E2E7E0
:106800004FF44053124A59682F6891420CBF986860
:106810004FF480502246314638440023FDF786FF6E
:106820000094D8F80000334600220121FFF704FE4F
:10683000DAE7FDF75DFFE1E70E20C4E71020C2E7CD
:106840000820C0E70920BEE794990020989900200D
:10685000DBE5B151909900203099002070B50B4BC9
:106860001D6885B90A4E3378042B0CD1094C0A4BAC
:1068700021781A780948FDF7F3FE10B90523337023
:1068800070BD2570FCE70820FAE700BF989900204A
:10689000949900203E990020809900203F99002083
:1068A000F8B5114B1A78032A04D0042A04D008241E
:1068B0002046F8BD04221A700C4B1C68002CF6D13F
:1068C0000B4D43682F789E0007EB8303402B09D8BC
:1068D000816808483246384404F091FE2B783344EE
:1068E0002B70E5E70924E3E79499002098990020AC
:1068F0003E9900203F99002010B50B4C2378052BC2
:1069000010D10A4B0A4A1B68116899420AD1062322
:106910002370084B1B685868FDF7DCFE08B9072395
:10692000237010BD0820FCE7949900209099002066
:106930009899002030990020044B1B78072B02D136
:10694000034B9B6818470820704700BF94990020AC
:106950002099002000B589B006238DF80C30079BE4
:10696000009303AB0FCBFEF719FE09B05DF804FBF3
:10697000F0B58DB005A8FEF77BFF089C002C3ED03B
:106980000B9E04F58053B3422DD91E4DA6F58053BE
:1069900005EA53054FF440539B689C420BD86900AD
:1069A0002B46A4EB450201F5805106EB4500FFF7AD
:1069B0002FFE0DB0F0BD05F58053012701A8CDE9EC
:1069C0000173CDE90337FFF735FD0028F1D14FF40E
:1069D000805301A8CDE9023301970497FFF72AFD00
:1069E0000028E6D1DBE70123CDE90136A4084FF406
:1069F000805301A803930494FFF71CFDD9E72046B8
:106A0000D7E700BF00F0FFFF00B58DB005A8FEF787
:106A10002FFF099880B1089B8BB94FF440530B4A64
:106A2000596891420ED19B6880080022039001A80A
:106A3000CDE90123FFF7FEFC0DB05DF804FB0B9AD6
:106A40001344F1E74FF48053EEE700BFDBE5B151AB
:106A500000B58DB005A8FEF70BFF099898B1089B0B
:106A6000A3B94FF440530C4A5968914211D19B6825
:106A70000393800803214FF47422049001A8CDE908
:106A80000112FFF7D7FC0DB05DF804FB0B9A13441D
:106A9000EEE74FF48053EBE7DBE5B15110B58CB076
:106AA00005A8FEF7E5FE0898B8B10B9C00F58053E9
:106AB000A34214D94FF440539B6898421BD80F4B04
:106AC000A4F5805203EA52035900A0EB430201F5FA
:106AD000805104EB4300FFF79BFD0CB010BD800814
:106AE00003224FF48053049001A8CDE901230394BD
:106AF000FFF7A0FCF1E70E20EFE700BF00F0FFFF7B
:106B0000A8DF7047AADF7047ADDF7047AEDF704780
:106B1000B0DF704762DF70472DE9F0470E4694B052
:106B20000546002800F0F880002900F0F5804B6849
:106B3000002B00F0F1804FF6FF730380774B04AA1F
:106B400003F1100C174618685968144603C408333B
:106B500063452246F7D141F230530DF10A01384620
:106B60000293FFF7D7FF0446002840F0D1802A1D8A
:106B700002A90120FFF7C4FF0446002840F0C880A6
:106B80009DF80A30AB7101461C220DA8FDF7CAFB27
:106B90009DF834300E9443F004038DF8343001AF87
:106BA000AB798DF80E30214641F23253032238463C
:106BB000CDE91044CDE91244ADF80C30FDF7B2FB3D
:106BC0009DF8063023F01F0343F0030321461422EF
:106BD0004FF4885A08A88DF80630ADF804A00DF1DE
:106BE0000C08FDF79FFB4FF01409A8880A9405F1E3
:106BF000080308AA0DA90C94CDE90887ADF82C90DC
:106C0000FFF780FF0446002840F0828001461C22E6
:106C10000DA8FDF787FB9DF834300E9423F0180380
:106C200043F018038DF83430AB798DF80E302146DF
:106C300041F2315303223846CDE91044CDE91244E4
:106C4000ADF80C30FDF76EFB9DF80630ADF804A0F2
:106C500023F01F0343F0130321464A4608A88DF88A
:106C60000630FDF75FFB1723ADF82C30A8880A9497
:106C700005F1100308AA0DA90C94CDE90887FFF7C8
:106C800041FF0446002843D101461C220DA8FDF710
:106C900049FB9DF834300E9443F002038DF83430F4
:106CA000AB798DF80E30214641F234530322384639
:106CB000CDE91044CDE91244ADF80C30FDF732FBBC
:106CC0001123ADF804309DF8063023F01F0343F084
:106CD000030321464A4608A88DF80630FDF722FB3B
:106CE00002230A93ADF82C30A8880C9605F12003F6
:106CF00008AA0DA9CDE90887FFF704FF044638B9B3
:106D00007368AB62B36803B1EB62054B01221A7082
:106D1000204614B0BDE8F0870E24F9E71ABA0F0038
:106D2000A399002070B5054686B070B302884FF66F
:106D3000FF739A422BD0174B1B7843B3164C10228B
:106D4000080AE170207121FA02F0090E07230126DA
:106D50006071A17102A800216370ADF80630227045
:106D6000A670FDF7DFFA2B8AADF808300023ADF8E6
:106D70000C3028888DF80A600DF1060302A9CDE9D0
:106D80000434FFF7C3FE06B070BD0E20FBE70820F9
:106D9000F9E700BFA39900209C99002030B5044674
:106DA00087B060B302884FF6FF739A4229D0164B22
:106DB0001B7833B3154D11232B700B0A6970AB7020
:106DC0000B0C090EEB70297105230021102202A87B
:106DD000ADF80630FDF7A6FA238AADF80830012396
:106DE0008DF80A300023ADF80C3020880DF1060331
:106DF00002A9CDE90435FFF789FE07B030BD0E20AA
:106E0000FBE70820F9E700BFA39900209C99002028
:106E100030B5134687B0044630B300884FF6FF7292
:106E2000904223D0124A127802B3124D69700321A6
:106E30001022ADF8061002A80021AB702A70FDF7F1
:106E400071FA238AADF8083001238DF80A30002347
:106E5000ADF80C3020880DF1060302A9CDE9043508
:106E6000FFF754FE07B030BD0E20FBE70820F9E71E
:106E7000A39900209C99002070B50D4688B0044667
:106E800050B149B1826A3AB10B88502B49D005D82C
:106E9000102B43D0112B54D008B070BD512BFBD117
:106EA0008E79022EF8D10A89038A9A42F4D18B7B1B
:106EB000043B022BF0D99DF816308DF8106043F09A
:106EC00001038DF816300B8AADF818304B8AADF8F7
:106ED0001A30082201F1140301A800210793FDF7DD
:106EE00021FAA18A2088019601AACDF808D0FFF7DF
:106EF0000BFE48B3E36A03B1984740F2FD132088C4
:106F0000ADF8143004A9FFF703FE0028C4D0E36AEB
:106F1000002BC1D008B0BDE8704018478B88238093
:106F2000BAE7C98803899942B6D108238DF8103091
:106F3000123535F8023C8DF81830059504A99047B4
:106F4000AAE74FF6FF73EAE7BDF800302088DB07B9
:106F5000D3D5002604A9ADF81460FFF7D9FD0028A9
:106F6000D5D1297D4B1E072B3ED8DFE803F004194D
:106F70002226282A3B2C6B8A8DF80460012B05D829
:106F8000062201212046FFF743FFBEE70123153506
:106F90008DF80C300295A36A01A9204698477BE73B
:106FA0006A8A01239A428DF80430F0D80622022121
:106FB000E8E702238DF80430EDE70323FAE7042322
:106FC000F8E70523F6E76B8A022B02D80322082193
:106FD000D8E7B5F81530ADF80830002B14BF0623FC
:106FE0000723E7E70923E5E70322CBE7A8DF70479C
:106FF000AADF70472DE9F04180468EB015461F4646
:107000000E4611B9084600F09BFD15B9284600F060
:1070100097FD1C220DEB02000021FDF783F99DF87E
:107020001C30ADF80480002443F002038DF81C30BE
:1070300021460123032268468DF80630CDE90A4433
:10704000CDE90C440894FDF76DF93B788DF80030DC
:107050007B788DF801309DF8023023F01F0343F058
:1070600002032146142202A88DF80230FDF75AF9D6
:107070000A48CDF80CD001AB029302AA149B0088F9
:10708000ADF8105007A9ADF81240ADF814500696AF
:10709000FFF7AEFF0EB0BDE8F08100BFC49900203D
:1070A00030B587B041F60A032D4AADF80C300446DE
:1070B00003A901208DF80E00FFF798FF0546D8B907
:1070C0002288E2B922894AB1264B0093E16804F193
:1070D0003C0342F62420FFF78DFFD8B9228C4AB139
:1070E000214B0093616A04F13C0342F62620FFF72E
:1070F00081FF78B9A36B7BB9284607B030BD1B4B25
:107100000093616804F13C0342F62920FFF772FF07
:107110000028D7D00546EFE71A788DF810205A8856
:107120008DF81120120A8DF812209A88DB888DF8CC
:1071300015301B0A8DF813208DF81630120A0C4BEF
:107140008DF814200093072204F13C0304A942F6B1
:107150005020FFF74FFF002818BF0546CCE700BFBF
:10716000C4990020B4990020AC990020BC9900205B
:10717000A499002029DF704728DF7047064B1822AA
:1071800002FB003000230422C0E904230371836062
:107190008361C360704700BFE099002013B50246C9
:1071A0000846C96843680093044B53F8214043697B
:1071B00010F80C1BA04702B010BD00BFD0990020F2
:1071C00038B5194C2378182202FB03431A79586901
:1071D000012A03D0032A1AD00F2038BD134A996917
:1071E00015689A68DB68A2EB0532B2F5805F184437
:1071F00001EB053100EB053034BF92084FF480629B
:10720000FFF7B8FF0028E8D10123A370E5E74FF0AE
:1072100080531B699BB2B0FBF3F0044B1B6818440E
:10722000FFF7AAFFEEE700BFE0990020C899002011
:1072300070B5134D6C780A2C1FD02E783444E4B20C
:10724000092C84BF0A3CE4B2182606FB0454A26150
:10725000207103C9A360049BE360AB7804F11002C2
:1072600082E8030023B100206B7801336B7070BD9E
:10727000FFF7A6FF1128F7D1F5E70420F7E700BFD5
:10728000E099002038B5264CA3782BB100230228C2
:10729000A37002D003283BD038BD2578214918229D
:1072A00002FB05420B6892680133B2EB033F0B60AF
:1072B00019D86B1CDBB262780020092B08604FF0F4
:1072C000180188BFA5F1090302F1FF3201FB054156
:1072D000D2B288BFDBB2043162702370FFF75EFF69
:1072E0002846FFF74BFF6378002BD5D0A378002BFF
:1072F000D2D1FFF765FF0028CED01128CCD021785D
:10730000182303FB01410431BDE83840FFF746BFB5
:107310002378182202FB034104310D20F4E700BF5B
:10732000E0990020C899002008B50A4B0021196097
:10733000094B1980997008460131FFF71FFF0A2990
:10734000F9D1064B00201860054BC3E90000C3E9E2
:10735000020008BDC8990020E0990020CC990020C7
:10736000D0990020064A03461068042807D0086018
:10737000411C11601A68034B43F82020002070471D
:10738000CC990020D099002013B55C180C43A407B9
:1073900008D1009313460A4601460120FFF748FF33
:1073A00002B010BD1020FBE707B500220B4600928B
:1073B00001460320FFF73CFF03B05DF804FB00002B
:1073C000094B5A7899780132D2B2914208BF002213
:1073D000197891421FBF02705A78182101FB0230C0
:1073E00014BF043000207047E89A0020082910B527
:1073F000044602D0002000F0A3FBD4E90030BDE831
:107400001040184773B5054600240DF107000E46DD
:107410008DF8074000F0A2FB0DF10600FFF7D0FF4A
:1074200090B10670094B9DF8062045605A709DF892
:10743000070000F0B7FB24B9054B4FF48012C3F8E6
:107440000021204602B070BD0424F0E7E89A002035
:1074500000E100E0204B21491A682F2300BF00BF44
:1074600000BF00BF00BF00BF00BF00BF8A422FD0D7
:1074700000BF00BF00BF00BF00BF00BF00BF00BF14
:1074800000BF00BF00BF00BF00BF00BF00BF00BF04
:1074900000BF00BF00BF00BF00BF00BF00BF00BFF4
:1074A00000BF00BF00BF00BF00BF00BF00BF00BFE4
:1074B00000BF00BF00BF00BF00BF00BF00BF00BFD4
:1074C00000BF00BF00BF00BF00BF00BF00BF00BFC4
:1074D000013BC3D1704700BF0C8000200024F400A2
:1074E0000C4B0D484FF4003210B5C3F88020012436
:1074F0004FF48033C0F84833C0F808334460FFF7D6
:10750000A9FF064B846000201860FFF7A3FF044B1F
:10751000187010BD00E100E000100140E09A00206A
:10752000D59A00202DE9F3412549264B0025C1F8C5
:107530004051C1F84451C1F84851C1F84C51C1F80B
:107540000051C1F804511B68002B34D0D1F8044518
:107550001D49DFF888800968641A24F07F442F46AB
:107560001A68A24212D8A41A15441A7CDE6962B1C4
:107570005A691F7400929B6901934246082168462C
:1075800000F046FA08B100F0DBFABEB90F4A104B22
:1075900011781B788B4205D10133DBB2022B08BF77
:1075A0000023137012780B4B43F822500A4B4FF410
:1075B0008012C3F8002102B0BDE8F0813346CFE766
:1075C00000100140E49A0020E09A0020D69A0020A2
:1075D000D79A0020D89A002000E100E0ED730F0058
:1075E0002DE9F74FA049A14A0B781278A04C9A4296
:1075F0003CD00133DBB2022B08BF00239D4A0B7045
:107600009D49176851F823003B1823F07F4313600E
:107610000022236816461546944613B942B12360EA
:1076200006E0196881420FD902B12360091A196076
:107630004FF0010A2368DFF8588200934FF00009E9
:10764000BEB94FF0180B45E0401A0D44D968D3F885
:107650001CE0C3F800C031B17A1922F07F42C3E9BF
:107660000121DE611E4673460122D6E70026B2469E
:10767000E0E73046F6697F4B45681A687F4F8368BC
:10768000A91A21F07F41B94200F2CA800B440121BE
:107690000174216803600022C0E90122C26100294F
:1076A00040F0C6802060CBE798F8020025684B1CAC
:1076B000DBB20BFB0181984208BF002388F8003041
:1076C0000B798868022B67D0032B00F09380012B85
:1076D00000F0938098F8001098F801308B42E3D1C5
:1076E0002368B9F1000F05D1009A9A4202D1BAF18C
:1076F000000F42D0002B00F0B480D3F80090604C13
:107700005C4BD4F8046518685E4F351A3B7825F059
:107710007F4503359BB94FF48033C4F84433C4F834
:107720000433594B4FF400324FF00108C3F8802165
:107730001A60C4F80080FFF78DFE87F80080A94525
:107740002CBF4844401920F07F40C4F84005D4F8CD
:1077500004359B1B23F07F43801B033320F07F40C5
:1077600083420AD9D4F80435C4F84035FFF772FED5
:10777000454B4FF40032C3F80021444B00221A70ED
:1077800003B0BDE8F08FB84209D03946FF69002F39
:10779000F9D1002303749DE72F462946F7E7884275
:1077A00011D1EB69236073B9DFF8D4E001910122B4
:1077B000CEF80820DFF8BCE0CEF80030334B1A706A
:1077C000FFF748FE01993B68FF69CF6117B13A683E
:1077D00013443B602368AB4218BF4FF00109D8E760
:1077E0002974ED690123002DFAD1002B3FF472AF0B
:1077F00025606FE700231946F5E7057C002D7FF42F
:1078000069AFCA6842600B6983604B69C3608B696A
:1078100083611E4B1B78002B18BF2A4642602AE763
:10782000521B22F07F429A4234BF9B1A00232EE75C
:107830000A689A4213D3D21A0A60C16132E75B1B0D
:10784000D56911463DB12A461568AB42F7D8ED1A05
:10785000156015460A460360C561D061F0E60A4628
:10786000F2E7FFF73DFE88E7D79A0020D69A00207E
:10787000E49A0020E09A0020D89A0020FEFF7F00C2
:1078800000100140D59A002000E100E0D49A0020C9
:10789000E89A002008B5FFF723FE104B00200B22CA
:1078A00018809A700E4B18600E4B18700E4B1870A3
:1078B0000E4B4FF48012E021C3F8802183F814139B
:1078C0001A6002F18042A2F56F22C2F8080583F81F
:1078D0001113074BD2F804251A6008BDE89A00205E
:1078E000E49A0020D79A0020D69A002000E100E018
:1078F000E09A0020074B9B784BB132B128B1036866
:10790000187C20B959745A617047072070470820C5
:10791000704700BFE89A00202DE9F743DFF8848024
:1079200098F8023005460E461746ABB3A0B30429BB
:1079300030D9436983B3437C0024012B0DF1070048
:107940000CBF8946A1468DF8074000F007F90DF1FC
:107950000600FFF735FDD8B1012303700F4B4560DA
:10796000D3F80435C0E90497C0E902369DF8063023
:1079700088F801309DF8070000F014F924B9084B8D
:107980004FF48012C3F80021204603B0BDE8F08315
:107990000424EFE70724F7E70824F5E70010014087
:1079A00000E100E0E89A0020064A92783AB130B14E
:1079B000426922B1002202740221FFF723BD082090
:1079C000704700BFE89A00204B1C30B5DB0004462E
:1079D00012F003009BB20DD1074D2A601A44074BE9
:1079E0001A60074B1870074B1870074B1C80074B29
:1079F000198030BD0720FCE7009C0020FC9B002084
:107A0000F89B0020F99B0020F69B0020F49B0020AF
:107A10002DE9F347DFF8C480B8F800308B42064602
:107A20000D4617464DD300240DF107008DF8074091
:107A300000F094F8254B264A26481B78008892F8D7
:107A400000C084455FFA8CF138BF0131DBB238BF2A
:107A5000CCB2A3422FD014781178CBB2884286BF23
:107A60000133DBB20023E4B213709DF8070000F08D
:107A700099F84FF6FF739C4225D0DFF86490D9F84F
:107A800000304FEAC40A43F8347003EBC402AEB1CD
:107A9000A5B1114BB8F800001B682A4604FB003062
:107AA000314603F0ACFDD9F8003053449D800020EE
:107AB00002B0BDE8F0874FF6FF74D6E7002393804D
:107AC000F5E70920F4E70420F2E700BFF99B002066
:107AD000F89B0020F49B0020FC9B0020F69B0020DC
:107AE000009C002070B5104C104D22782B789A42E3
:107AF00000D170BD0E480F4A2378126806880E48E0
:107B000002EBC301006852F83320898803FB0600AA
:107B100090470A4922780988D3B2914286BF01333F
:107B2000DBB200232370E0E7F99B0020F89B0020E4
:107B3000F69B0020009C0020FC9B0020F49B002072
:107B40001FB50021CDE9021001AA44F20100ADF8F1
:107B50000410FCF742FE05B05DF804FB70B5EFF3CE
:107B6000108672B60C4A9468012384B993600B4B5B
:107B70000B4DD3F8801029401160C3F88050D3F822
:107B8000841051604FF0FF32C3F884202346037005
:107B900006B962B670BD00BF049C002000E100E0A1
:107BA000FC06FFBD10B5084B9A685AB150B9EFF307
:107BB000108172B6054A1C6814605C685460986055
:107BC00001B962B610BD00BF049C002000E100E0D6
:107BD00003462AB110881A4619448A4203D17047D5
:107BE0004FF6FF70F7E743BA12F8010B9BB258400B
:107BF000C0F3031343401BB283EA03331BB25801A3
:107C000000F4FF50434098B2E7E70000064B074AF4
:107C100000201870064B1A600822C3E90120C3E94E
:107C20000300C3E9050070470CAF00202C9C002026
:107C3000109C00200020704730B50446E9B1124B7B
:107C40005A6800200860D2B1B4F5167F19D8013AFD
:107C50005A60DA681C680132DA601A694FF41775E5
:107C600005FB02440C6099690124944001322143D0
:107C700002F0070299611A6130BD0E20FCE7042072
:107C8000FAE70C20F8E700BF109C0020F0B51C4973
:107C90008A6892B34D690E68AC1A04F00704234653
:107CA0004FF4177707FB036C604510D188690125F5
:107CB0009D406840886100204E68D1F818C04FF0A0
:107CC000010E73440025164403F007030AE0013354
:107CD00003F007039D42E5D11020EDE74AB1013AD8
:107CE0001C4601250EFA04F414EA0C0FA6EB020759
:107CF000F4D00DB1C1E90172F0BD0420FCE700BF72
:107D0000109C0020064A13691268013B4FF417715A
:107D100003F0070301FB0323C3F858020020704758
:107D2000109C002030B5C0B1B9B10E4BDA68B2B1C9
:107D3000013ADA609A681C6801329A605A694FF415
:107D4000177505FB024404600132D4F8580208603C
:107D500002F007025A61002030BD0E20FCE704202B
:107D6000FAE700BF109C00203FB40C49086890B1AE
:107D70000B4B1C687CB10B4A1568CDE902500023FF
:107D80008DF804300B60136004AB13E90700234641
:107D900004B030BC184704B030BC704710AF0020AE
:107DA00028AF002018AF0020DC2810B509D0DD284E
:107DB00010D0C02816D1FFF7D7FF0E4B0E4A1A601D
:107DC00010BD0E4A0E4B19681368581C1060C02273
:107DD000CA54F2E7094A0A4B19681368581C106024
:107DE000DB22F5E7064B054A196813685C1CC8548A
:107DF0001460E2E720800020197E0F0010AF002001
:107E000018AF0020C02802BF014B024A1A60704719
:107E100020800020197E0F00C02810B409D0DB2874
:107E20000BD0094B094A196813685C1CC8541460CC
:107E300006E05DF8044BFFF797BF054B054A1A6053
:107E40005DF8044B704700BF18AF002010AF002052
:107E500020800020A97D0F0007B501228DF80700C2
:107E60000DF10701002002F059FDB0FA80F0400941
:107E7000800003B05DF804FB10B5064A064C12689A
:107E80002368D05CFFF7E8FF10B923680133236053
:107E900010BD00BF24AF00201CAF002008B5C020DB
:107EA000FFF7DAFF28B9034B1B6813B9024B034AEB
:107EB0001A6008BD1CAF00201C800020797E0F00D6
:107EC00008B5DB20FFF7C8FF10B9024B024A1A6061
:107ED00008BD00BF1C800020DD7E0F0010B50C4ADD
:107EE0000C4C12682368D35CC02B03D0DB2B0DD065
:107EF000042010BDDC20FFF7AFFF0028F9D1236874
:107F0000054A01332360054B1A60F2E7DD20F2E7F2
:107F100024AF00201CAF0020797E0F001C800020C1
:107F20007FB5184C184D194E002002F097FC30B365
:107F300022689AB12968336899420FD2012201A9B7
:107F4000002002F097FC10B94FF0FF3001E09DF8DF
:107F500004000F4BC0B21B689847E5E70D4B1B6848
:107F60006BB10292084A0221126803928DF8041044
:107F700004AA12E9070004B0BDE87040184704B035
:107F800070BD00BF18AF002010AF002014AF00205C
:107F90002080002028AF0020014B1860002070478F
:107FA00028AF0020034B1A780AB901221A7000206A
:107FB000704700BF2CAF0020014B002018707047A5
:107FC0002CAF00202DE9F04F85B000284ED0284F6F
:107FD0003B78012B06D0022B0CBF0420082005B0F3
:107FE000BDE8F08F234CDFF89C90234E234DDFF843
:107FF0009880DFF898A0DFF898B0C9F80010002347
:108000002360022330603B70C5F800802268D9F8F5
:1080100000309A4214D3C5F80080FFF73FFF18BB29
:10802000174B1B6801223A70F3B18DF804203268B7
:1080300002922268039204AA12E90700984713E00B
:10804000336822689A5CC02A03D022689B5CDB2BD1
:1080500004D12B68534508BFC5F800B02B6898477A
:10806000042801D01128D1D10020B8E71020B6E7AC
:108070002CAF00201CAF002024AF00201C8000206B
:1080800028AF002020AF00209D7E0F00797E0F00DA
:10809000C17E0F00054B064A1860064B1960064B5F
:1080A00000201860054B1A60704700BF18AF002011
:1080B000057E0F0014AF002010AF002020800020AC
:1080C000064B07481B68DB00DBB20022037004216B
:1080D0005B4242708270C370FFF774BF6CAF0020C8
:1080E0002DAF002010B52A4C02462378012B11D069
:1080F000022B1DD00BBB02BB2648FFF755FC08B175
:10810000FFF71EFD244B1B68BBB1244ABDE810409D
:1081100010781847012A10D1214B1968214B0631DC
:108120001868FFF74FFF08B1FFF70AFD02230CE0C4
:10813000022A1AD0032A01D052B110BD1A4A13687C
:10814000013303F007031360002323700022CCE700
:10815000164B10481A6041F67F21FFF7DDFB00281F
:10816000EBD0BDE81040FFF7EBBC104A1368052BBD
:108170000AD0013313600A4B19680A4BBDE810405E
:1081800018680631FFF71EBF044B01221A70DBE7A7
:108190007CAF00203CAF002078AF002036AF00203D
:1081A00060AF002064AF002068AF002038AF00202F
:1081B000F0B585B004AB03E907009DF804000D4657
:1081C0001646032876D8DFE800F00802A8AB0120A5
:1081D00005B0BDE8F040FFF785BF032A524C40F2DE
:1081E00083804B7813F00F0269D00E2A7CD1042EC5
:1081F00059D00A78500656D5110654D51A44AB7892
:108200001A44EB781A4412F0FF024CD1B71E3946DB
:108210002846FFF7DDFCEB5B834244D143492A78D3
:108220000B6802F00702D8B282422FD1013303F06B
:1082300007030B60FFF744FF3D4B012230461A70E5
:10824000FFF760FD08B1FFF77BFC37494FF416706C
:10825000FFF7F2FCB0B1042810D136480521FFF732
:1082600019FF08B1FFF76CFC334B1B68002B59D08A
:108270004FF0000005B0BDE8F04018470020FFF7C0
:108280005FFCEAE720684FF41671E8E720684FF4D6
:108290001671FFF7FFFE08B1FFF752FC05B0BDE80D
:1082A000F040FFF70DBF20684FF41671FFF7F2FEA4
:1082B000002837D005B0BDE8F040FFF741BC0A7890
:1082C000897813440B44E9780B44DBB263B91B4B48
:1082D0001B68013383EAD20313F0070304D1184A61
:1082E00003201370FFF7FEFE25681DB14FF41671D1
:1082F0002846DBE70C494FF41670FFF79DFC18B9D0
:1083000020684FF41671D1E7042802D109480521ED
:10831000CCE72846FFF714FCF8E706480521C5E737
:108320000320C7E705B0F0BD70AF00206CAF0020A0
:108330005CAF002031AF002074AF002068AF002098
:1083400036AF00200220FFF7CDBE0000074B10B56E
:10835000044618600648FFF71FFE08B1FFF7F0FB60
:10836000002C0CBF0E20002010BD00BF74AF0020F9
:10837000B1810F00184A1948002310B51360184A3C
:108380001360184A1360184A1370184A1370184B78
:10839000184A01211960184B1960184B1970FFF722
:1083A000A9FA08B1032010BDFFF730FC0028FAD16C
:1083B000FFF7F8FD0028F6D1114C4FF41670214656
:1083C000FFF73AFC0028EDD120684FF41671BDE8A4
:1083D0001040FFF75FBE00BF64AF00202CBA0F0053
:1083E00060AF002038AF00205CAF00207CAF0020E1
:1083F0006CAF002045830F0068AF002036AF00202F
:1084000070AF00200C4A08B5002313600B4A1360BC
:10841000FFF710FC08B1FFF793FBFFF7CDFD08B1A4
:10842000FFF78EFB0648FFF7BFFA042802D10020B1
:10843000FFF786FB002008BD78AF002074AF002056
:108440003CAF002037B50D46044698B191B10A4BB8
:1084500019780022019259B101A91A70FFF762FC44
:10846000019B063B2B8023680433236003B030BD9F
:108470000420FBE70E20F9E75CAF00200438FFF78B
:1084800005BC18DF70470000F0B51D46154B87B0DE
:1084900018680F4659681B7A03AC03C42370124B4B
:1084A00018685968114B009301AC03C42046164666
:1084B00003F0B3F821460246384603F0A0F801A8BD
:1084C00003F0ABF801A90246304603F098F868467D
:1084D00003F0A3F869460246284603F090F807B077
:1084E000F0BD00BF9BB90F00A4B90F00312E3000C2
:1084F0000120704710B51C460B781E2B06D00023B8
:108500002022052102F050FC204610BD0024FBE78C
:10851000F8B5069F14460D463A46002118461E46F9
:10852000FBF700FF7CB14FF0E023D3F8F03DDB0711
:1085300000D500BE4FF0FF30F8BD284600F0F8F936
:10854000013504F50074BC4206EB0401F5D3204666
:10855000F2E70000F8B50A4F0D461E460024069BC0
:108560009C4206EB040101D32046F8BD3A4628465A
:1085700000F0ACFA0028F7D0013504F50074EEE7FE
:1085800080AF002030B5264D2A7A8DB09AB107AC65
:108590001422002120460625FBF7C4FE8DF81C504E
:1085A0000B9B009394E80F00FCF7F8FF0620FCF704
:1085B000C7FC0DB030BD2B68002BFAD0194B1978D1
:1085C00019B105201A70FCF7BBFCD5E900329A42BC
:1085D000EFD307AC142200212046FBF7A3FE6B7AF1
:1085E000DBB106234FF420424FF474214FF4602096
:1085F0008DF81C3002F0CAFF0028D1D010220021D3
:1086000003A8FBF78FFE4FF460224FF4205303A81A
:10861000CDE90423FFF735FFC2E78DF81C30BFE733
:1086200080AF002024800020024B0B604FF40073C9
:10863000138070470901010001207047004870470E
:10864000ED800020044B054A1878054B00280CBF2C
:1086500010461846704700BF2FB200208B800020C4
:10866000408000202DE9FF411E4B187020B11E4BA9
:1086700029229A720022DA721C4A1D4DDFF878C056
:1086800017461C4BEE4603F11006744618685968ED
:10869000F046A8E803000833B342C646F6D12B786B
:1086A00003F00F0310336B4413F8103CD373114BDA
:1086B00018685968A646AEE803000833B34274460A
:1086C000F6D115F8013B04A901EB1313654513F826
:1086D000103C9373A2F10202D3D100233B7404B087
:1086E000BDE8F0812FB20020ED8000201EB20020F6
:1086F00060000010ACB90F006800001010B570B930
:10870000134B14481968022202F079FF0123013348
:10871000DBB211485B0043F44073038010BD0528B1
:1087200013D80B4B53F82040204602F076FFC3B21B
:108730001F2B28BF1F23084A2046E1188842E6D095
:1087400010F8014B22F8024FF8E70020E6E700BFDF
:10875000288000209EB100209CB100204DDF704792
:108760004EDF70474FDF704750DF704712DF7047B2
:1087700000F0C0BE002000F02BBD00001FB5244B50
:10878000402283F8272300238DF807304FF440530D
:1087900004465A681F4B9A4227D10DF10700FFF794
:1087A000E5FF9DF8073003B30120FFF7D9FF012053
:1087B000FFF7D4FF0120FFF7D5FF02A8FFF7D4FF92
:1087C000029BDA0702D5002000F094FE029B9B0773
:1087D00002D5022000F08EFE2046FFF743FF00F096
:1087E00027F802F021FE04B010BD002301A88DF887
:1087F0000430FCF755FC084B039303A8FCF778FC06
:10880000FCF77CFC4FF08043D3F838340293D7E771
:1088100000E100E0DBE5B15171870F00012000F0BD
:1088200069BE0120FCF78CBB0220FCF789BB00006D
:108830007FB52F492F4802F0D3FE4FF440532E4A04
:10884000596891424CD11A78102A46D9142A1869CD
:1088500044D95B69294CB3FBF4F50A2201A904FB56
:10886000153402F091FE2649224802F0B9FE01A912
:10887000204802F0B5FE23491E4802F0B1FE0A224C
:1088800001A9284602F080FE01A91A4802F0A8FEBC
:108890001D49184802F0A4FE4FF47A760A2201A975
:1088A000B4FBF6F5284602F06FFE01A9114802F06C
:1088B00097FE15490F4802F093FE0A2201A906FB14
:1088C000154002F061FE01A90A4802F089FE0F4935
:1088D000084802F085FE04B070BD00200023B9E70F
:1088E0000B49044804B0BDE8704002F079BE00BFF7
:1088F000C8B90F00FF800020DBE5B15140420F00F6
:10890000D5B90F00D3B90F00D7B90F00E2B90F00E6
:10891000D9B90F0010B503461C1AA24200DC10BDE5
:108920000C781CB1013103F8014BF5E72024FAE77C
:108930002DE9F0410C4605464FF400720021204617
:10894000FBF7F0FC65B95A493E22204602F057FE7B
:10895000552384F8FE31AA2384F8FF31BDE8F08165
:10896000B5F5017F29D86B1EB3F5817F24BF6FF465
:10897000817805EB08034BB9F822227004F1090154
:108980002246FF2002F8010F8A42FBD11B0200227F
:1089900040F69360191FB1F5696F03F1010106D22A
:1089A000834214BF8BB24FF6FF7324F812300132AA
:1089B000B2F5807F0B46EDD1D0E7B5F5027F3BD80D
:1089C0006FF4017C65443DB920463A490B22FFF71C
:1089D000A1FF2823E3722034374B2E014FF000080B
:1089E00003EB05257427022EB8D80B222946204612
:1089F000FFF790FF5A234C226FF046016374E37433
:108A00006376B31C84F80D80A773E1732274A2749B
:108A100084F8148084F81580A775E1752276638345
:108A2000E86830B102F0F9FDE0610136203410351C
:108A3000D9E74FF4E910F7E7204B9D428ED86FF449
:108A40000277EA19012A0DD81B4B03EB0213DD68EC
:108A5000284602F0E2FD294602462046BDE8F041E4
:108A600002F0CDBD6FF4FD76A9190902B1F5801FA2
:108A7000BFF474AF124B236003F1144303F52C13BE
:108A800003F6023363600F4BC4F8FC314FF46963A3
:108A9000A3614FF40053A5F20B254FF48072A3603D
:108AA000094B6561E1602261E36104F12000D5E7D3
:108AB00032BA0F005DBA0F0070BA0F000801010052
:108AC0005546320A306FB10A29009A23F7B5644B34
:108AD00014460A689A420D4608D103F114434A68C5
:108AE00003F52C1303F602339A4203D04FF0FF3004
:108AF00003B0F0BDD1F8FC215A4B9A42F6D18B68F5
:108B000023F4FF5323F01E039B049B0CB3F5005F7B
:108B1000ECD10B69B3F5807FE8D1C86810F0FF068F
:108B2000E4D1CB69504A934205D0504A934243D096
:108B30004F4A9342DAD1A0F58053B3F5692F07D29B
:108B400001234FF4807205F12001FBF7EFFD02E0F5
:108B5000B0F5805FCAD2AB695BB32268934207D09D
:108B600041F263018B4200D80AB14FF0FF3323601A
:108B70006B6941F2630293421BD803F0070204EBD6
:108B8000D303012191401A7B1142C8B204D161681C
:108B9000024301311A736160D4E900329A4208D36A
:108BA0000120FBF7A5FD637A1BB1A37A0BB9012362
:108BB00023724FF400709BE701276772CB68B3F113
:108BC000102F17D104223431684602F018FD042218
:108BD00005F138010DEB020002F011FD009BB3F529
:108BE000742F03D1019BB3F57E2F01D027727DE74F
:108BF000A772B0E7A3F57422B2F5204F28D2E27A2B
:108C000001F12007DAB91B4A934218D32B69B3420A
:108C100015D90422B919684602F0F1FC009BD02B4B
:108C200014D10422311D0DEB0200394402F0E7FC9F
:108C30000F4B019A9A424FF001030ED1E372E8689C
:108C40002A6901233946A0F5A0307EE70836DDE722
:108C5000B3F5805FFFF47FAF0123237246E700BFC7
:108C60005546320A306FB10A4028A5AD3C8263D622
:108C700029009A2300D80F004FF08053D3F8300119
:108C8000082802D1D3F8343123B9A0F10D0358429A
:108C90005841704701207047094B012283F8D820C2
:108CA0000260BFF36F8FBFF34F8F064A904202D02E
:108CB000043A904202D1002283F8D820704700BFC6
:108CC00030B200205070024042DF704743DF7047EF
:108CD00044DF704712DF704707B54FF44053002060
:108CE0005A68084B9A420AD18DF807000DF1070027
:108CF000FFF7F0FF9DF80700003818BF012003B010
:108D00005DF804FBDBE5B15107B5FFF7E5FF58B1AE
:108D1000002301A80193FFF7DBFF0198003818BF7B
:108D2000012003B05DF804FB4FF08043D3F80C043E
:108D300000F00110A0F1011358425841F1E7000082
:108D400010B5134B134A5B68C3F3080383B9EFF301
:108D500010836BB910494B681B0609D58024C1F8F4
:108D6000844092F8D8308BB9FFF796FF4C6010BD65
:108D700092F8D83033B10146BDE8104007480122CF
:108D800001F079B8BDE81040FFF786BF4C60E6E718
:108D900000ED00E030B2002000E100E0418D0F0066
:108DA0000D4B182202FB0033598A1A8A521A998AEB
:108DB00092B28A4228BF0A46D9681423434303F17A
:108DC000804303F51C33C3F80016C3F80426034B95
:108DD00003EB8000FFF7B4BF30B200200470024004
:108DE000074BD3F8C024D10309D406490648D1F86B
:108DF000C010C3F8A017C3F8A427FFF7A1BF70479E
:108E00000070024030B2002048700240082870B460
:108E100002D170BCFFF7E4BF0F4D104A00F5947308
:108E20001821414352F823406B18A4B2DE889B8876
:108E300069589B1B9BB2A34228BF2346142404FB02
:108E40000022C2F80017C2F80437054B70BC03EBD0
:108E50008000FFF775BF00BF30B2002000700240F5
:108E60002870024070470000014B80225A60704712
:108E700000E100E0024B8022C3F88420704700BF6D
:108E800000E100E0074BD3F80014D3F800240A43B4
:108E9000C3F800240022C3F858214FF48002C3F81D
:108EA000042370470070024070B58878404D00F090
:108EB0007F0318220C26C4095A4306FB04228E881D
:108EC0002A44C6F30A061681CA7802F00302012A70
:108ED00029D00121374A01FA03F5D4B903F10C0670
:108EE000B140C2F80413D2F8141503F59473294362
:108EF000C2F8141542F823402E4BC3F8180540F46D
:108F00008070C3F80C05BFF36F8FBFF34F8F012044
:108F100013E002339940C2F80413D2F810352B4302
:108F2000C2F81035E8E7082B08D04FF0E023D3F85B
:108F3000F03DDB0700D500BE002070BD1D4BDCB945
:108F4000B5F8D42012B18022C3F81C250022C3F842
:108F50005021D3F8002312F4001208BFC3F85421A3
:108F6000144B4FF44012C3F80423D3F8142542F4F1
:108F70008072C3F81425BFE70022C3F82C21B5F88E
:108F8000C82012B18022C3F81C25D3F8002312F4A4
:108F9000001208BFC3F85421064B074AC3F8042344
:108FA000D3F8102542F48072C3F81025A4E700BF5F
:108FB00030B2002000700240000820002DE9F84384
:108FC0001D4B1E4DDFF8808080220124C3F88420D1
